{
  "_format": "hh-sol-artifact-1",
  "contractName": "Donation",
  "sourceName": "contracts/Donation.sol",
  "abi": [
    {
      "anonymous": false,
      "inputs": [
        {
          "indexed": false,
          "internalType": "uint256",
          "name": "campaignId",
          "type": "uint256"
        },
        {
          "indexed": false,
          "internalType": "address",
          "name": "owner",
          "type": "address"
        },
        {
          "indexed": false,
          "internalType": "string",
          "name": "title",
          "type": "string"
        },
        {
          "indexed": false,
          "internalType": "uint256",
          "name": "goal",
          "type": "uint256"
        }
      ],
      "name": "CampaignCreated",
      "type": "event"
    },
    {
      "anonymous": false,
      "inputs": [
        {
          "indexed": false,
          "internalType": "uint256",
          "name": "campaignId",
          "type": "uint256"
        },
        {
          "indexed": false,
          "internalType": "address",
          "name": "donor",
          "type": "address"
        },
        {
          "indexed": false,
          "internalType": "uint256",
          "name": "amount",
          "type": "uint256"
        }
      ],
      "name": "DonationReceived",
      "type": "event"
    },
    {
      "anonymous": false,
      "inputs": [
        {
          "indexed": false,
          "internalType": "uint256",
          "name": "campaignId",
          "type": "uint256"
        },
        {
          "indexed": false,
          "internalType": "address",
          "name": "owner",
          "type": "address"
        },
        {
          "indexed": false,
          "internalType": "uint256",
          "name": "amount",
          "type": "uint256"
        }
      ],
      "name": "FundsReleased",
      "type": "event"
    },
    {
      "inputs": [],
      "name": "campaignCount",
      "outputs": [
        {
          "internalType": "uint256",
          "name": "",
          "type": "uint256"
        }
      ],
      "stateMutability": "view",
      "type": "function"
    },
    {
      "inputs": [
        {
          "internalType": "uint256",
          "name": "",
          "type": "uint256"
        }
      ],
      "name": "campaigns",
      "outputs": [
        {
          "internalType": "address",
          "name": "owner",
          "type": "address"
        },
        {
          "internalType": "string",
          "name": "title",
          "type": "string"
        },
        {
          "internalType": "string",
          "name": "description",
          "type": "string"
        },
        {
          "internalType": "uint256",
          "name": "goal",
          "type": "uint256"
        },
        {
          "internalType": "uint256",
          "name": "deadline",
          "type": "uint256"
        },
        {
          "internalType": "uint256",
          "name": "amountRaised",
          "type": "uint256"
        },
        {
          "internalType": "bool",
          "name": "fundsReleased",
          "type": "bool"
        }
      ],
      "stateMutability": "view",
      "type": "function"
    },
    {
      "inputs": [
        {
          "internalType": "string",
          "name": "_title",
          "type": "string"
        },
        {
          "internalType": "string",
          "name": "_description",
          "type": "string"
        },
        {
          "internalType": "uint256",
          "name": "_goal",
          "type": "uint256"
        },
        {
          "internalType": "uint256",
          "name": "_durationInDays",
          "type": "uint256"
        }
      ],
      "name": "createCampaign",
      "outputs": [],
      "stateMutability": "nonpayable",
      "type": "function"
    },
    {
      "inputs": [
        {
          "internalType": "uint256",
          "name": "_campaignId",
          "type": "uint256"
        }
      ],
      "name": "donate",
      "outputs": [],
      "stateMutability": "payable",
      "type": "function"
    },
    {
      "inputs": [
        {
          "internalType": "uint256",
          "name": "",
          "type": "uint256"
        },
        {
          "internalType": "address",
          "name": "",
          "type": "address"
        }
      ],
      "name": "donations",
      "outputs": [
        {
          "internalType": "uint256",
          "name": "",
          "type": "uint256"
        }
      ],
      "stateMutability": "view",
      "type": "function"
    },
    {
      "inputs": [],
      "name": "getAllCampaigns",
      "outputs": [
        {
          "components": [
            {
              "internalType": "address",
              "name": "owner",
              "type": "address"
            },
            {
              "internalType": "string",
              "name": "title",
              "type": "string"
            },
            {
              "internalType": "string",
              "name": "description",
              "type": "string"
            },
            {
              "internalType": "uint256",
              "name": "goal",
              "type": "uint256"
            },
            {
              "internalType": "uint256",
              "name": "deadline",
              "type": "uint256"
            },
            {
              "internalType": "uint256",
              "name": "amountRaised",
              "type": "uint256"
            },
            {
              "internalType": "bool",
              "name": "fundsReleased",
              "type": "bool"
            }
          ],
          "internalType": "struct Donation.Campaign[]",
          "name": "",
          "type": "tuple[]"
        }
      ],
      "stateMutability": "view",
      "type": "function"
    },
    {
      "inputs": [
        {
          "internalType": "uint256",
          "name": "_campaignId",
          "type": "uint256"
        }
      ],
      "name": "getCampaign",
      "outputs": [
        {
          "internalType": "address",
          "name": "owner",
          "type": "address"
        },
        {
          "internalType": "string",
          "name": "title",
          "type": "string"
        },
        {
          "internalType": "string",
          "name": "description",
          "type": "string"
        },
        {
          "internalType": "uint256",
          "name": "goal",
          "type": "uint256"
        },
        {
          "internalType": "uint256",
          "name": "deadline",
          "type": "uint256"
        },
        {
          "internalType": "uint256",
          "name": "amountRaised",
          "type": "uint256"
        },
        {
          "internalType": "bool",
          "name": "fundsReleased",
          "type": "bool"
        }
      ],
      "stateMutability": "view",
      "type": "function"
    },
    {
      "inputs": [
        {
          "internalType": "uint256",
          "name": "_campaignId",
          "type": "uint256"
        }
      ],
      "name": "releaseFunds",
      "outputs": [],
      "stateMutability": "nonpayable",
      "type": "function"
    }
  ],
  "bytecode": "0x608060405234801561001057600080fd5b50611cf3806100206000396000f3fe60806040526004361061007b5760003560e01c806386cdf6041161004e57806386cdf6041461015a578063a318f26914610185578063ee1554a3146101ae578063f14faf6f146101eb5761007b565b8063141961bc146100805780634d68282f146100c35780635598f8cc146100ec5780637274e30d1461012f575b600080fd5b34801561008c57600080fd5b506100a760048036038101906100a29190610e76565b610207565b6040516100ba9796959493929190610f9e565b60405180910390f35b3480156100cf57600080fd5b506100ea60048036038101906100e59190610e76565b610386565b005b3480156100f857600080fd5b50610113600480360381019061010e9190610e76565b610624565b6040516101269796959493929190610f9e565b60405180910390f35b34801561013b57600080fd5b506101446107c5565b604051610151919061101b565b60405180910390f35b34801561016657600080fd5b5061016f6107cb565b60405161017c9190611212565b60405180910390f35b34801561019157600080fd5b506101ac60048036038101906101a79190611369565b610a3d565b005b3480156101ba57600080fd5b506101d560048036038101906101d09190611434565b610c52565b6040516101e2919061101b565b60405180910390f35b61020560048036038101906102009190610e76565b610c77565b005b60006020528060005260406000206000915090508060000160009054906101000a900473ffffffffffffffffffffffffffffffffffffffff1690806001018054610250906114a3565b80601f016020809104026020016040519081016040528092919081815260200182805461027c906114a3565b80156102c95780601f1061029e576101008083540402835291602001916102c9565b820191906000526020600020905b8154815290600101906020018083116102ac57829003601f168201915b5050505050908060020180546102de906114a3565b80601f016020809104026020016040519081016040528092919081815260200182805461030a906114a3565b80156103575780601f1061032c57610100808354040283529160200191610357565b820191906000526020600020905b81548152906001019060200180831161033a57829003601f168201915b5050505050908060030154908060040154908060050154908060060160009054906101000a900460ff16905087565b600080600083815260200190815260200160002090508060000160009054906101000a900473ffffffffffffffffffffffffffffffffffffffff1673ffffffffffffffffffffffffffffffffffffffff163373ffffffffffffffffffffffffffffffffffffffff161461042e576040517f08c379a000000000000000000000000000000000000000000000000000000000815260040161042590611546565b60405180910390fd5b806003015481600501541015610479576040517f08c379a0000000000000000000000000000000000000000000000000000000008152600401610470906115b2565b60405180910390fd5b8060060160009054906101000a900460ff16156104cb576040517f08c379a00000000000000000000000000000000000000000000000000000000081526004016104c29061161e565b60405180910390fd5b60018160060160006101000a81548160ff02191690831515021790555060008160000160009054906101000a900473ffffffffffffffffffffffffffffffffffffffff1673ffffffffffffffffffffffffffffffffffffffff1682600501546040516105369061166f565b60006040518083038185875af1925050503d8060008114610573576040519150601f19603f3d011682016040523d82523d6000602084013e610578565b606091505b50509050806105bc576040517f08c379a00000000000000000000000000000000000000000000000000000000081526004016105b3906116d0565b60405180910390fd5b7f6e3c6096795c8298a218b2cfb8bde42726ff7c9a3d27b4d3ba41ab7f74feb5fb838360000160009054906101000a900473ffffffffffffffffffffffffffffffffffffffff168460050154604051610617939291906116f0565b60405180910390a1505050565b600060608060008060008060008060008a815260200190815260200160002090508060000160009054906101000a900473ffffffffffffffffffffffffffffffffffffffff1681600101826002018360030154846004015485600501548660060160009054906101000a900460ff1685805461069f906114a3565b80601f01602080910402602001604051908101604052809291908181526020018280546106cb906114a3565b80156107185780601f106106ed57610100808354040283529160200191610718565b820191906000526020600020905b8154815290600101906020018083116106fb57829003601f168201915b5050505050955084805461072b906114a3565b80601f0160208091040260200160405190810160405280929190818152602001828054610757906114a3565b80156107a45780601f10610779576101008083540402835291602001916107a4565b820191906000526020600020905b81548152906001019060200180831161078757829003601f168201915b50505050509450975097509750975097509750975050919395979092949650565b60015481565b6060600060015467ffffffffffffffff8111156107eb576107ea61123e565b5b60405190808252806020026020018201604052801561082457816020015b610811610dd7565b8152602001906001900390816108095790505b50905060005b600154811015610a35576000808281526020019081526020016000206040518060e00160405290816000820160009054906101000a900473ffffffffffffffffffffffffffffffffffffffff1673ffffffffffffffffffffffffffffffffffffffff1673ffffffffffffffffffffffffffffffffffffffff1681526020016001820180546108b7906114a3565b80601f01602080910402602001604051908101604052809291908181526020018280546108e3906114a3565b80156109305780601f1061090557610100808354040283529160200191610930565b820191906000526020600020905b81548152906001019060200180831161091357829003601f168201915b50505050508152602001600282018054610949906114a3565b80601f0160208091040260200160405190810160405280929190818152602001828054610975906114a3565b80156109c25780601f10610997576101008083540402835291602001916109c2565b820191906000526020600020905b8154815290600101906020018083116109a557829003601f168201915b505050505081526020016003820154815260200160048201548152602001600582015481526020016006820160009054906101000a900460ff161515151581525050828281518110610a1757610a16611727565b5b60200260200101819052508080610a2d90611785565b91505061082a565b508091505090565b60008211610a80576040517f08c379a0000000000000000000000000000000000000000000000000000000008152600401610a7790611819565b60405180910390fd5b60008111610ac3576040517f08c379a0000000000000000000000000000000000000000000000000000000008152600401610aba90611885565b60405180910390fd5b600060015490506040518060e001604052803373ffffffffffffffffffffffffffffffffffffffff1681526020018681526020018581526020018481526020016201518084610b1291906118a5565b42610b1d91906118e7565b8152602001600081526020016000151581525060008083815260200190815260200160002060008201518160000160006101000a81548173ffffffffffffffffffffffffffffffffffffffff021916908373ffffffffffffffffffffffffffffffffffffffff1602179055506020820151816001019081610b9e9190611ac7565b506040820151816002019081610bb49190611ac7565b50606082015181600301556080820151816004015560a0820151816005015560c08201518160060160006101000a81548160ff02191690831515021790555090505060016000815480929190610c0990611785565b91905055507f825fb10f7650ed27414d6f86acdf7d5946927d9b25001f045f1a2435deec02fe81338786604051610c439493929190611b99565b60405180910390a15050505050565b6002602052816000526040600020602052806000526040600020600091509150505481565b6000806000838152602001908152602001600020905080600401544210610cd3576040517f08c379a0000000000000000000000000000000000000000000000000000000008152600401610cca90611c31565b60405180910390fd5b60003411610d16576040517f08c379a0000000000000000000000000000000000000000000000000000000008152600401610d0d90611c9d565b60405180910390fd5b34816005016000828254610d2a91906118e7565b92505081905550346002600084815260200190815260200160002060003373ffffffffffffffffffffffffffffffffffffffff1673ffffffffffffffffffffffffffffffffffffffff1681526020019081526020016000206000828254610d9191906118e7565b925050819055507f0b5b4c52969ff7329ecf7ee536409fda87812b15a8622bc6e8cdeab3aee14a26823334604051610dcb939291906116f0565b60405180910390a15050565b6040518060e00160405280600073ffffffffffffffffffffffffffffffffffffffff16815260200160608152602001606081526020016000815260200160008152602001600081526020016000151581525090565b6000604051905090565b600080fd5b600080fd5b6000819050919050565b610e5381610e40565b8114610e5e57600080fd5b50565b600081359050610e7081610e4a565b92915050565b600060208284031215610e8c57610e8b610e36565b5b6000610e9a84828501610e61565b91505092915050565b600073ffffffffffffffffffffffffffffffffffffffff82169050919050565b6000610ece82610ea3565b9050919050565b610ede81610ec3565b82525050565b600081519050919050565b600082825260208201905092915050565b60005b83811015610f1e578082015181840152602081019050610f03565b60008484015250505050565b6000601f19601f8301169050919050565b6000610f4682610ee4565b610f508185610eef565b9350610f60818560208601610f00565b610f6981610f2a565b840191505092915050565b610f7d81610e40565b82525050565b60008115159050919050565b610f9881610f83565b82525050565b600060e082019050610fb3600083018a610ed5565b8181036020830152610fc58189610f3b565b90508181036040830152610fd98188610f3b565b9050610fe86060830187610f74565b610ff56080830186610f74565b61100260a0830185610f74565b61100f60c0830184610f8f565b98975050505050505050565b60006020820190506110306000830184610f74565b92915050565b600081519050919050565b600082825260208201905092915050565b6000819050602082019050919050565b61106b81610ec3565b82525050565b600082825260208201905092915050565b600061108d82610ee4565b6110978185611071565b93506110a7818560208601610f00565b6110b081610f2a565b840191505092915050565b6110c481610e40565b82525050565b6110d381610f83565b82525050565b600060e0830160008301516110f16000860182611062565b50602083015184820360208601526111098282611082565b915050604083015184820360408601526111238282611082565b915050606083015161113860608601826110bb565b50608083015161114b60808601826110bb565b5060a083015161115e60a08601826110bb565b5060c083015161117160c08601826110ca565b508091505092915050565b600061118883836110d9565b905092915050565b6000602082019050919050565b60006111a882611036565b6111b28185611041565b9350836020820285016111c485611052565b8060005b8581101561120057848403895281516111e1858261117c565b94506111ec83611190565b925060208a019950506001810190506111c8565b50829750879550505050505092915050565b6000602082019050818103600083015261122c818461119d565b905092915050565b600080fd5b600080fd5b7f4e487b7100000000000000000000000000000000000000000000000000000000600052604160045260246000fd5b61127682610f2a565b810181811067ffffffffffffffff821117156112955761129461123e565b5b80604052505050565b60006112a8610e2c565b90506112b4828261126d565b919050565b600067ffffffffffffffff8211156112d4576112d361123e565b5b6112dd82610f2a565b9050602081019050919050565b82818337600083830152505050565b600061130c611307846112b9565b61129e565b90508281526020810184848401111561132857611327611239565b5b6113338482856112ea565b509392505050565b600082601f8301126113505761134f611234565b5b81356113608482602086016112f9565b91505092915050565b6000806000806080858703121561138357611382610e36565b5b600085013567ffffffffffffffff8111156113a1576113a0610e3b565b5b6113ad8782880161133b565b945050602085013567ffffffffffffffff8111156113ce576113cd610e3b565b5b6113da8782880161133b565b93505060406113eb87828801610e61565b92505060606113fc87828801610e61565b91505092959194509250565b61141181610ec3565b811461141c57600080fd5b50565b60008135905061142e81611408565b92915050565b6000806040838503121561144b5761144a610e36565b5b600061145985828601610e61565b925050602061146a8582860161141f565b9150509250929050565b7f4e487b7100000000000000000000000000000000000000000000000000000000600052602260045260246000fd5b600060028204905060018216806114bb57607f821691505b6020821081036114ce576114cd611474565b5b50919050565b7f4f6e6c792063616d706169676e206f776e65722063616e2072656c656173652060008201527f66756e6473000000000000000000000000000000000000000000000000000000602082015250565b6000611530602583610eef565b915061153b826114d4565b604082019050919050565b6000602082019050818103600083015261155f81611523565b9050919050565b7f476f616c206e6f74207265616368656420796574000000000000000000000000600082015250565b600061159c601483610eef565b91506115a782611566565b602082019050919050565b600060208201905081810360008301526115cb8161158f565b9050919050565b7f46756e647320616c72656164792072656c656173656400000000000000000000600082015250565b6000611608601683610eef565b9150611613826115d2565b602082019050919050565b60006020820190508181036000830152611637816115fb565b9050919050565b600081905092915050565b50565b600061165960008361163e565b915061166482611649565b600082019050919050565b600061167a8261164c565b9150819050919050565b7f5472616e73666572206661696c65640000000000000000000000000000000000600082015250565b60006116ba600f83610eef565b91506116c582611684565b602082019050919050565b600060208201905081810360008301526116e9816116ad565b9050919050565b60006060820190506117056000830186610f74565b6117126020830185610ed5565b61171f6040830184610f74565b949350505050565b7f4e487b7100000000000000000000000000000000000000000000000000000000600052603260045260246000fd5b7f4e487b7100000000000000000000000000000000000000000000000000000000600052601160045260246000fd5b600061179082610e40565b91507fffffffffffffffffffffffffffffffffffffffffffffffffffffffffffffffff82036117c2576117c1611756565b5b600182019050919050565b7f476f616c206d7573742062652067726561746572207468616e20300000000000600082015250565b6000611803601b83610eef565b915061180e826117cd565b602082019050919050565b60006020820190508181036000830152611832816117f6565b9050919050565b7f4475726174696f6e206d757374206265206174206c6561737420312064617900600082015250565b600061186f601f83610eef565b915061187a82611839565b602082019050919050565b6000602082019050818103600083015261189e81611862565b9050919050565b60006118b082610e40565b91506118bb83610e40565b92508282026118c981610e40565b915082820484148315176118e0576118df611756565b5b5092915050565b60006118f282610e40565b91506118fd83610e40565b925082820190508082111561191557611914611756565b5b92915050565b60008190508160005260206000209050919050565b60006020601f8301049050919050565b600082821b905092915050565b60006008830261197d7fffffffffffffffffffffffffffffffffffffffffffffffffffffffffffffffff82611940565b6119878683611940565b95508019841693508086168417925050509392505050565b6000819050919050565b60006119c46119bf6119ba84610e40565b61199f565b610e40565b9050919050565b6000819050919050565b6119de836119a9565b6119f26119ea826119cb565b84845461194d565b825550505050565b600090565b611a076119fa565b611a128184846119d5565b505050565b5b81811015611a3657611a2b6000826119ff565b600181019050611a18565b5050565b601f821115611a7b57611a4c8161191b565b611a5584611930565b81016020851015611a64578190505b611a78611a7085611930565b830182611a17565b50505b505050565b600082821c905092915050565b6000611a9e60001984600802611a80565b1980831691505092915050565b6000611ab78383611a8d565b9150826002028217905092915050565b611ad082610ee4565b67ffffffffffffffff811115611ae957611ae861123e565b5b611af382546114a3565b611afe828285611a3a565b600060209050601f831160018114611b315760008415611b1f578287015190505b611b298582611aab565b865550611b91565b601f198416611b3f8661191b565b60005b82811015611b6757848901518255600182019150602085019450602081019050611b42565b86831015611b845784890151611b80601f891682611a8d565b8355505b6001600288020188555050505b505050505050565b6000608082019050611bae6000830187610f74565b611bbb6020830186610ed5565b8181036040830152611bcd8185610f3b565b9050611bdc6060830184610f74565b95945050505050565b7f43616d706169676e2068617320656e6465640000000000000000000000000000600082015250565b6000611c1b601283610eef565b9150611c2682611be5565b602082019050919050565b60006020820190508181036000830152611c4a81611c0e565b9050919050565b7f446f6e6174696f6e206d7573742062652067726561746572207468616e203000600082015250565b6000611c87601f83610eef565b9150611c9282611c51565b602082019050919050565b60006020820190508181036000830152611cb681611c7a565b905091905056fea2646970667358221220ed5d7026d96621c5d39d1f88a173bd582d8b778c576e41dfcd1c248636093e9c64736f6c63430008130033",
  "linkReferences": {},
  "deployedLinkReferences": {}
}